{
  "contractName": "MultiSignatureWallet",
  "abi": [
    {
      "constant": true,
      "inputs": [
        {
          "name": "",
          "type": "uint256"
        }
      ],
      "name": "owners",
      "outputs": [
        {
          "name": "",
          "type": "address"
        }
      ],
      "payable": false,
      "stateMutability": "view",
      "type": "function"
    },
    {
      "constant": true,
      "inputs": [
        {
          "name": "",
          "type": "address"
        }
      ],
      "name": "isOwner",
      "outputs": [
        {
          "name": "",
          "type": "bool"
        }
      ],
      "payable": false,
      "stateMutability": "view",
      "type": "function"
    },
    {
      "constant": true,
      "inputs": [
        {
          "name": "",
          "type": "uint256"
        },
        {
          "name": "",
          "type": "address"
        }
      ],
      "name": "confirmations",
      "outputs": [
        {
          "name": "",
          "type": "bool"
        }
      ],
      "payable": false,
      "stateMutability": "view",
      "type": "function"
    },
    {
      "constant": true,
      "inputs": [
        {
          "name": "",
          "type": "uint256"
        }
      ],
      "name": "transactions",
      "outputs": [
        {
          "name": "executed",
          "type": "bool"
        },
        {
          "name": "destination",
          "type": "address"
        },
        {
          "name": "value",
          "type": "uint256"
        },
        {
          "name": "data",
          "type": "bytes"
        }
      ],
      "payable": false,
      "stateMutability": "view",
      "type": "function"
    },
    {
      "constant": true,
      "inputs": [],
      "name": "transactionCount",
      "outputs": [
        {
          "name": "",
          "type": "uint256"
        }
      ],
      "payable": false,
      "stateMutability": "view",
      "type": "function"
    },
    {
      "constant": true,
      "inputs": [],
      "name": "required",
      "outputs": [
        {
          "name": "",
          "type": "uint256"
        }
      ],
      "payable": false,
      "stateMutability": "view",
      "type": "function"
    },
    {
      "inputs": [
        {
          "name": "_owners",
          "type": "address[]"
        },
        {
          "name": "_required",
          "type": "uint256"
        }
      ],
      "payable": false,
      "stateMutability": "nonpayable",
      "type": "constructor"
    },
    {
      "payable": true,
      "stateMutability": "payable",
      "type": "fallback"
    },
    {
      "anonymous": false,
      "inputs": [
        {
          "indexed": true,
          "name": "transactionId",
          "type": "uint256"
        }
      ],
      "name": "Submission",
      "type": "event"
    },
    {
      "anonymous": false,
      "inputs": [
        {
          "indexed": true,
          "name": "sender",
          "type": "address"
        },
        {
          "indexed": true,
          "name": "transactionId",
          "type": "uint256"
        }
      ],
      "name": "Confirmation",
      "type": "event"
    },
    {
      "anonymous": false,
      "inputs": [
        {
          "indexed": true,
          "name": "sender",
          "type": "address"
        },
        {
          "indexed": true,
          "name": "transactionId",
          "type": "uint256"
        }
      ],
      "name": "ConfirmationRevoked",
      "type": "event"
    },
    {
      "anonymous": false,
      "inputs": [
        {
          "indexed": true,
          "name": "transactionId",
          "type": "uint256"
        }
      ],
      "name": "ExecutionOk",
      "type": "event"
    },
    {
      "anonymous": false,
      "inputs": [
        {
          "indexed": true,
          "name": "transactionId",
          "type": "uint256"
        }
      ],
      "name": "ExecutionFailure",
      "type": "event"
    },
    {
      "constant": false,
      "inputs": [
        {
          "name": "destination",
          "type": "address"
        },
        {
          "name": "value",
          "type": "uint256"
        },
        {
          "name": "data",
          "type": "bytes"
        }
      ],
      "name": "submitTransaction",
      "outputs": [
        {
          "name": "transactionId",
          "type": "uint256"
        }
      ],
      "payable": false,
      "stateMutability": "nonpayable",
      "type": "function"
    },
    {
      "constant": false,
      "inputs": [
        {
          "name": "transactionId",
          "type": "uint256"
        }
      ],
      "name": "confirmTransaction",
      "outputs": [],
      "payable": false,
      "stateMutability": "nonpayable",
      "type": "function"
    },
    {
      "constant": false,
      "inputs": [
        {
          "name": "transactionId",
          "type": "uint256"
        }
      ],
      "name": "revokeConfirmation",
      "outputs": [],
      "payable": false,
      "stateMutability": "nonpayable",
      "type": "function"
    },
    {
      "constant": false,
      "inputs": [
        {
          "name": "transactionId",
          "type": "uint256"
        }
      ],
      "name": "executeTransaction",
      "outputs": [],
      "payable": false,
      "stateMutability": "nonpayable",
      "type": "function"
    }
  ],
  "bytecode": "0x60806040523480156200001157600080fd5b50604051620010a7380380620010a78339810180604052810190808051820192919060200180519060200190929190505050600082518281811180620000575750600081145b80620000635750600082145b156200006e57600080fd5b600092505b8451831015620000fb5760016002600087868151811015156200009257fe5b9060200190602002015173ffffffffffffffffffffffffffffffffffffffff1673ffffffffffffffffffffffffffffffffffffffff16815260200190815260200160002060006101000a81548160ff021916908315150217905550828060010193505062000073565b84600090805190602001906200011392919062000126565b50836001819055505050505050620001fb565b828054828255906000526020600020908101928215620001a2579160200282015b82811115620001a15782518260006101000a81548173ffffffffffffffffffffffffffffffffffffffff021916908373ffffffffffffffffffffffffffffffffffffffff1602179055509160200191906001019062000147565b5b509050620001b19190620001b5565b5090565b620001f891905b80821115620001f457600081816101000a81549073ffffffffffffffffffffffffffffffffffffffff021916905550600101620001bc565b5090565b90565b610e9c806200020b6000396000f3006080604052600436106100a4576000357c0100000000000000000000000000000000000000000000000000000000900463ffffffff168063025e7c27146100a657806320ea8d86146101135780632f54bf6e146101405780633411c81c1461019b5780639ace38c214610200578063b77bf600146102eb578063c01a8c8414610316578063c642747414610343578063dc8452cd146103ea578063ee22610b14610415575b005b3480156100b257600080fd5b506100d160048036038101908080359060200190929190505050610442565b604051808273ffffffffffffffffffffffffffffffffffffffff1673ffffffffffffffffffffffffffffffffffffffff16815260200191505060405180910390f35b34801561011f57600080fd5b5061013e60048036038101908080359060200190929190505050610480565b005b34801561014c57600080fd5b50610181600480360381019080803573ffffffffffffffffffffffffffffffffffffffff169060200190929190505050610654565b604051808215151515815260200191505060405180910390f35b3480156101a757600080fd5b506101e660048036038101908080359060200190929190803573ffffffffffffffffffffffffffffffffffffffff169060200190929190505050610674565b604051808215151515815260200191505060405180910390f35b34801561020c57600080fd5b5061022b600480360381019080803590602001909291905050506106a3565b60405180851515151581526020018473ffffffffffffffffffffffffffffffffffffffff1673ffffffffffffffffffffffffffffffffffffffff16815260200183815260200180602001828103825283818151815260200191508051906020019080838360005b838110156102ad578082015181840152602081019050610292565b50505050905090810190601f1680156102da5780820380516001836020036101000a031916815260200191505b509550505050505060405180910390f35b3480156102f757600080fd5b50610300610798565b6040518082815260200191505060405180910390f35b34801561032257600080fd5b506103416004803603810190808035906020019092919050505061079e565b005b34801561034f57600080fd5b506103d4600480360381019080803573ffffffffffffffffffffffffffffffffffffffff16906020019092919080359060200190929190803590602001908201803590602001908080601f016020809104026020016040519081016040528093929190818152602001838380828437820191505050505050919291929050505061097b565b6040518082815260200191505060405180910390f35b3480156103f657600080fd5b506103ff6109f2565b6040518082815260200191505060405180910390f35b34801561042157600080fd5b50610440600480360381019080803590602001909291905050506109f8565b005b60008181548110151561045157fe5b906000526020600020016000915054906101000a900473ffffffffffffffffffffffffffffffffffffffff1681565b600260003373ffffffffffffffffffffffffffffffffffffffff1673ffffffffffffffffffffffffffffffffffffffff16815260200190815260200160002060009054906101000a900460ff1615156104d857600080fd5b60006004600083815260200190815260200160002060000160019054906101000a900473ffffffffffffffffffffffffffffffffffffffff1673ffffffffffffffffffffffffffffffffffffffff161415151561053457600080fd5b600115156005600083815260200190815260200160002060003373ffffffffffffffffffffffffffffffffffffffff1673ffffffffffffffffffffffffffffffffffffffff16815260200190815260200160002060009054906101000a900460ff1615151415156105a457600080fd5b60006005600083815260200190815260200160002060003373ffffffffffffffffffffffffffffffffffffffff1673ffffffffffffffffffffffffffffffffffffffff16815260200190815260200160002060006101000a81548160ff021916908315150217905550803373ffffffffffffffffffffffffffffffffffffffff167f795394da21278ca39d59bb3ca00efeebdc0679acc420916c7385c2c5d942656f60405160405180910390a350565b60026020528060005260406000206000915054906101000a900460ff1681565b60056020528160005260406000206020528060005260406000206000915091509054906101000a900460ff1681565b60046020528060005260406000206000915090508060000160009054906101000a900460ff16908060000160019054906101000a900473ffffffffffffffffffffffffffffffffffffffff1690806001015490806002018054600181600116156101000203166002900480601f01602080910402602001604051908101604052809291908181526020018280546001816001161561010002031660029004801561078e5780601f106107635761010080835404028352916020019161078e565b820191906000526020600020905b81548152906001019060200180831161077157829003601f168201915b5050505050905084565b60035481565b600260003373ffffffffffffffffffffffffffffffffffffffff1673ffffffffffffffffffffffffffffffffffffffff16815260200190815260200160002060009054906101000a900460ff1615156107f657600080fd5b60006004600083815260200190815260200160002060000160019054906101000a900473ffffffffffffffffffffffffffffffffffffffff1673ffffffffffffffffffffffffffffffffffffffff161415151561085257600080fd5b600015156005600083815260200190815260200160002060003373ffffffffffffffffffffffffffffffffffffffff1673ffffffffffffffffffffffffffffffffffffffff16815260200190815260200160002060009054906101000a900460ff1615151415156108c257600080fd5b60016005600083815260200190815260200160002060003373ffffffffffffffffffffffffffffffffffffffff1673ffffffffffffffffffffffffffffffffffffffff16815260200190815260200160002060006101000a81548160ff021916908315150217905550803373ffffffffffffffffffffffffffffffffffffffff167f4a504a94899432a9846e1aa406dceb1bcfd538bb839071d49d1e5e23f5be30ef60405160405180910390a3610978816109f8565b50565b6000600260003373ffffffffffffffffffffffffffffffffffffffff1673ffffffffffffffffffffffffffffffffffffffff16815260200190815260200160002060009054906101000a900460ff1615156109d557600080fd5b6109e0848484610bb5565b90506109eb8161079e565b9392505050565b60015481565b60008015156004600084815260200190815260200160002060000160009054906101000a900460ff161515141515610a2f57600080fd5b610a3882610ce0565b15610bb15760046000838152602001908152602001600020905060018160000160006101000a81548160ff0219169083151502179055508060000160019054906101000a900473ffffffffffffffffffffffffffffffffffffffff1673ffffffffffffffffffffffffffffffffffffffff168160010154826002016040518082805460018160011615610100020316600290048015610b185780601f10610aed57610100808354040283529160200191610b18565b820191906000526020600020905b815481529060010190602001808311610afb57829003601f168201915b505091505060006040518083038185875af19250505015610b6557817f8e7ce6f4af2decab90c6ca93c4de8993320a49e2daf1a615f544577726f4203560405160405180910390a2610bb0565b817f526441bb6c1aba3c9a4a6ca1d6545da9c2333c8c48343ef398eb858d72b7923660405160405180910390a260008160000160006101000a81548160ff0219169083151502179055505b5b5050565b600060035490506080604051908101604052806000151581526020018573ffffffffffffffffffffffffffffffffffffffff168152602001848152602001838152506004600083815260200190815260200160002060008201518160000160006101000a81548160ff02191690831515021790555060208201518160000160016101000a81548173ffffffffffffffffffffffffffffffffffffffff021916908373ffffffffffffffffffffffffffffffffffffffff160217905550604082015181600101556060820151816002019080519060200190610c97929190610dcb565b509050506001600360008282540192505081905550807fc0ba8fe4b176c1714197d43b9cc6bcf797a4a7461c5fe8d0ef6e184ae7601e5160405160405180910390a29392505050565b6000806000809150600090505b600080549050811015610dbf576005600085815260200190815260200160002060008083815481101515610d1d57fe5b9060005260206000200160009054906101000a900473ffffffffffffffffffffffffffffffffffffffff1673ffffffffffffffffffffffffffffffffffffffff1673ffffffffffffffffffffffffffffffffffffffff16815260200190815260200160002060009054906101000a900460ff1615610d9e5781806001019250505b60015482101515610db25760019250610dc4565b8080600101915050610ced565b600092505b5050919050565b828054600181600116156101000203166002900490600052602060002090601f016020900481019282601f10610e0c57805160ff1916838001178555610e3a565b82800160010185558215610e3a579182015b82811115610e39578251825591602001919060010190610e1e565b5b509050610e479190610e4b565b5090565b610e6d91905b80821115610e69576000816000905550600101610e51565b5090565b905600a165627a7a723058205933e006c5cafc38efb71642edccbf5ae25e86d03ea706f78b82b251364e01c50029",
  "source": "pragma solidity ^0.4.15;\n\ncontract MultiSignatureWallet {\n\n    address[] public owners;\n    uint256 public required;\n    mapping(address => bool) public isOwner;\n    uint256 public transactionCount;\n    mapping (uint => Transaction) public transactions;\n    mapping (uint => mapping (address => bool)) public confirmations;\n\n    \n    struct Transaction {\n\t    bool executed;\n        address destination;\n        uint value;\n        bytes data;\n    }\n\n    event Submission(uint256 indexed transactionId);\n    event Confirmation(address indexed sender, uint256 indexed transactionId);\n    event ConfirmationRevoked(address indexed sender, uint256 indexed transactionId);\n    event ExecutionOk(uint256 indexed transactionId);\n    event ExecutionFailure(uint indexed transactionId);\n\n    \n    modifier validRequirement(uint ownerCount, uint _required) {\n        if (   _required > ownerCount\n            || _required == 0\n            || ownerCount == 0)\n            revert();\n        _;\n    }\n    \n    /// @dev Fallback function, which accepts ether when sent to contract\n    function() public payable {}\n\n    /*\n     * Public functions\n     */\n    /// @dev Contract constructor sets initial owners and required number of confirmations.\n    /// @param _owners List of initial owners.\n    /// @param _required Number of required confirmations.\n    constructor(address[] _owners, uint _required) public \n        validRequirement(_owners.length, _required) {\n                for (uint i=0; i<_owners.length; i++) {\n                    isOwner[_owners[i]] = true;\n                }\n                owners = _owners;\n                required = _required; \n        }\n\n    /// @dev Allows an owner to submit and confirm a transaction.\n    /// @param destination Transaction target address.\n    /// @param value Transaction ether value.\n    /// @param data Transaction data payload.\n    /// @return Returns transaction ID.\n    function submitTransaction(address destination, uint value, bytes data) \n        public returns (uint transactionId) {\n            require(isOwner[msg.sender]);\n            transactionId = addTransaction(destination, value, data);\n            confirmTransaction(transactionId);\n    }\n\n    /// @dev Allows an owner to confirm a transaction.\n    /// @param transactionId Transaction ID.\n    function confirmTransaction(uint transactionId) public {\n        require(isOwner[msg.sender]);\n        require(transactions[transactionId].destination != 0);\n        require(confirmations[transactionId][msg.sender] == false);\n        confirmations[transactionId][msg.sender] = true;\n        emit Confirmation(msg.sender, transactionId);\n        executeTransaction(transactionId);\n    }\n\n    /// @dev Allows an owner to revoke a confirmation for a transaction.\n    /// @param transactionId Transaction ID.\n    function revokeConfirmation(uint transactionId) public {\n        require(isOwner[msg.sender]);\n        require(transactions[transactionId].destination != 0);\n        require(confirmations[transactionId][msg.sender] == true);\n        confirmations[transactionId][msg.sender] = false;\n        emit ConfirmationRevoked(msg.sender, transactionId);\n    }\n\n    /// @dev Allows anyone to execute a confirmed transaction.\n    /// @param transactionId Transaction ID.\n    function executeTransaction(uint transactionId) public {\n        require(transactions[transactionId].executed == false);\n        if (isConfirmed(transactionId)){\n             Transaction storage txn = transactions[transactionId];\n            txn.executed = true;\n            if (txn.destination.call.value(txn.value)(txn.data))\n                emit ExecutionOk(transactionId);\n            else {\n                emit ExecutionFailure(transactionId);\n                txn.executed = false;\n            }\n        }\n    }\n\n\t\t/*\n\t\t * (Possible) Helper Functions\n\t\t */\n    /// @dev Returns the confirmation status of a transaction.\n    /// @param transactionId Transaction ID.\n    /// @return Confirmation status.\n    function isConfirmed(uint transactionId) internal constant returns (bool) {\n        uint256 confirmed = 0;\n        for (uint256 i=0; i < owners.length; i++){\n            if (confirmations[transactionId][owners[i]]) {\n                confirmed++;\n            }\n            if (confirmed >= required) {\n                return true;\n            }\n        }\n        return false;\n    }\n\n    /// @dev Adds a new transaction to the transaction mapping.\n    /// @param destination Transaction target address.\n    /// @param value Transaction ether value.\n    /// @param data Transaction data payload.\n    /// @return Returns transaction ID.\n    function addTransaction(address destination, uint value, bytes data) \n        internal returns (uint transactionId) {\n            transactionId = transactionCount;\n            transactions[transactionId] = Transaction({\n                destination: destination,\n                value: value,\n                data: data,\n                executed: false\n            });\n            transactionCount += 1;\n            emit Submission(transactionId);\n        }\n}\n",
  "sourcePath": "/home/juan/consensys/otherrepos/multisig-wallet/contracts/MultiSignatureWallet.sol",
  "compiler": {
    "name": "solc",
    "version": "0.4.24+commit.e67f0147.Emscripten.clang"
  },
  "schemaVersion": "2.0.1",
  "updatedAt": "2018-11-11T16:59:55.285Z"
}