{
  "contractName": "SimpleStorage",
  "abi": [
    {
      "constant": true,
      "inputs": [],
      "name": "storedData",
      "outputs": [
        {
          "name": "",
          "type": "uint256"
        }
      ],
      "payable": false,
      "stateMutability": "view",
      "type": "function"
    },
    {
      "constant": true,
      "inputs": [],
      "name": "caller",
      "outputs": [
        {
          "name": "",
          "type": "address"
        }
      ],
      "payable": false,
      "stateMutability": "view",
      "type": "function"
    },
    {
      "constant": false,
      "inputs": [
        {
          "name": "x",
          "type": "uint256"
        }
      ],
      "name": "set",
      "outputs": [],
      "payable": false,
      "stateMutability": "nonpayable",
      "type": "function"
    }
  ],
  "bytecode": "0x608060405234801561001057600080fd5b506101ae806100206000396000f300608060405260043610610057576000357c0100000000000000000000000000000000000000000000000000000000900463ffffffff1680632a1afcd91461005c57806360fe47b114610087578063fc9c8d39146100b4575b600080fd5b34801561006857600080fd5b5061007161010b565b6040518082815260200191505060405180910390f35b34801561009357600080fd5b506100b260048036038101908080359060200190929190505050610111565b005b3480156100c057600080fd5b506100c961015c565b604051808273ffffffffffffffffffffffffffffffffffffffff1673ffffffffffffffffffffffffffffffffffffffff16815260200191505060405180910390f35b60005481565b33600160006101000a81548173ffffffffffffffffffffffffffffffffffffffff021916908373ffffffffffffffffffffffffffffffffffffffff1602179055508060008190555050565b600160009054906101000a900473ffffffffffffffffffffffffffffffffffffffff16815600a165627a7a723058200fbead2cf8760d639dd20ed3896874ce85492e23a89ac8e54f37c0ad797a62a60029",
  "source": "pragma solidity ^0.4.0;\n\ncontract SimpleStorage {\n    uint public storedData;\n\n    address public caller;\n\n    function set(uint x) public {\n        caller = msg.sender;\n        storedData = x;\n    }\n}\n",
  "sourcePath": "/home/juan/consensys/otherrepos/multisig-wallet/contracts/SimpleStorage.sol",
  "compiler": {
    "name": "solc",
    "version": "0.4.24+commit.e67f0147.Emscripten.clang"
  },
  "schemaVersion": "2.0.1",
  "updatedAt": "2018-11-11T16:59:55.280Z"
}